:020000040800F2
:1000000088050020A94C0008774C0008794C0008AE
:1000100000000000000000000000000000000000E0
:100020000000000000000000000000007D4C0008FF
:1000300000000000000000007F4C0008814C000818
:100040009B300008B7310008AF490008CB4A0008D0
:100050006B4C0008F54C0008F74C0008F94C000800
:10006000FB4C0008FD4C0008FF4C0008014D000847
:10007000034D0008054D000800000000074D000872
:1000800000000000094D0008000000000000000012
:100090000B4D0008000000000D4D00080F4D00083A
:1000A000114D0008134D0008154D0008174D0008AC
:1000B000194D00081B4D00081D4D00081F4D00087C
:1000C0000000000000000000000000000000000030
:1000D0000000000000000000000000000000000020
:1000E0000000000000000000000000000000000010
:1000F00000000000E003E003E003E003E003E003AE
:10010000E003E003C003C003C001C001C001C0019F
:10011000C001000000000000E003E003E003000075
:1001200000000000000000003C1E3C1E3C1E3C1E67
:100130003C1E3C1E3C1E00000000000000000000B1
:1001400000000000000000000000000000000000AF
:10015000000000000000000000000000CE01CE03FF
:10016000DE039E039C039C07FF3FFF7F3807380F89
:10017000780F780F780EFFFFFFFFF01EF01CE01CD9
:10018000E03CE03DE039000000000000000000001D
:10019000FC03FE0FEE1FE01EE01EE01EE01EE01F4F
:1001A000E00FE007F003FC01FE01FE01FE01FE018D
:1001B000FE01FE01FE3DFC3FF00FE001E00100000A
:1001C00000000000033E07F78FE78EE79EE3BCE3E5
:1001D000B8E7F8E7F0F7E03FC001FF03FF07F307D8
:1001E000F30FF31EF33CF338F3787FF03FE00000A9
:1001F0000000000000000000E007F80F780F781FF3
:10020000781F781F780FF00FE00F801FC37FC3FBAC
:10021000E7F3F7F1F7F0FFF07FF03EF87F7CFF3F68
:10022000EF1F00000000000000000000E003E003FA
:10023000E003E003E003C003C00100000000000091
:1002400000000000000000000000000000000000AE
:10025000000000000000000000000000000000009E
:100260003F007C00F001E001C003C0078007800769
:10027000800F000F000F000F000F000F000F800F06
:1002800080078007C007C003E001F0017C003F0049
:100290000F000000007E001FC007C003E001F00156
:1002A000F000F000F800780078007800780078001E
:1002B0007800F800F000F000F001E001C003C00792
:1002C000001F007E00780000E003C003C001CE39AB
:1002D000FF3F7F3F20037003F807780F3C1F38066D
:1002E000000000000000000000000000000000000E
:1002F00000000000000000000000000000000000FE
:100300000000000000000000C001C001C001C001E9
:10031000C001C001C001FFFFFFFFC001C001C0015B
:10032000C001C001C001000000000000000000008A
:1003300000000000000000000000000000000000BD
:1003400000000000000000000000000000000000AD
:100350000000E003E003E003E003E001E001E0016E
:10036000C001800300000000000000000000000049
:1003700000000000000000000000FE3FFE3F000003
:10038000000000000000000000000000000000006D
:10039000000000000000000000000000000000005D
:1003A000000000000000000000000000000000004D
:1003B00000000000000000000000E003E003E00394
:1003C000E003000000000000000000000F000F002C
:1003D0001E001E003C003C0078007800F000F00099
:1003E000E001E001C003C00380078007000F000F99
:1003F000001E001E003C003C0078007800F0000069
:10040000F007F80F7C1F3E3E1E3C1F7C1F7C0F78C0
:100410000F780F780F780F780F780F781F7C1F7C7C
:100420001E3C3E3E7C1FF80FF0070000000000005D
:1004300000000000F000F007F03FF03FF001F00195
:10044000F001F001F001F001F001F001F001F00124
:10045000F001F001F001F001F001FF3FFF3F00006B
:100460000000000000000000E00FF83F7C3C3C0072
:100470003E003E003E003C003C007C00F800F001E5
:10048000E003C0078007000F001E003E003CFE3F57
:10049000FE3F00000000000000000000F00FF81F09
:1004A0007C1C3E003E003E003C003C00F800F00F8B
:1004B000F80F7C003E001E001E001E001E003E00C5
:1004C0007C1CF81FE01F000000000000000000007E
:1004D0007800F800F800F801F803F807F807780F3B
:1004E000781E781E783C78787878FFFFFFFF7800D8
:1004F00078007800780078007800000000000000A4
:1005000000000000FC1FFC1FFC1F001E001E001E40
:10051000001E001EE01FF81FFC007C003E003E0095
:100520001E003E003E003C007C1CF81FE01F000047
:100530000000000000000000FC01FE078E0F001FFD
:10054000001E003E003C003CF83DFC3F3E7F1F7E0D
:100550000F3C0F3C0F3C0F3C0F3E1F1E3E1FFC0F7D
:10056000F00300000000000000000000FF3FFF3F1C
:10057000FF3F0F001E001E003C0038007800F00016
:10058000F000E001E001C003C0038007800F800F8E
:10059000000F001F001F000000000000000000000E
:1005A000F807FC0F3E1F1E1E1E3E1E3E1E1E3C1F59
:1005B000F80FF007F80FFC1E3E3E1F3C1F7C0F7C1F
:1005C0000F7C1F3C3E3FFC1FF007000000000000B6
:1005D00000000000F007F80F7C1E3E3C1E3C1F7C14
:1005E0001F7C1F7C1F7C1F3C3F3EFF1FEF071F002F
:1005F0001E001E003E003C00F838F03FE01F0000E7
:1006000000000000000000000000000000000000EA
:1006100000000000E003E003E003E003000000004E
:1006200000000000000000000000E003E003E00321
:10063000E0030000000000000000000000000000D7
:100640000000000000000000E003E003E003E0031E
:100650000000000000000000000000000000E003B7
:10066000E003E003E003E001E001E001C0038003F8
:1006700000000000000000000000000003000F0068
:100680003F00FC00F003C00F003F00FE003FC00F22
:10069000F003FC003F000F0003000000000000001A
:1006A000000000000000000000000000000000004A
:1006B0000000000000000000FFFFFFFF000000003E
:1006C0000000FFFFFFFF000000000000000000002E
:1006D000000000000000000000000000000000001A
:1006E0000000000000E000F8007E801FE007F80135
:1006F0007E001F007E00F801E007801F007E00F8EA
:1007000000E000000000000000000000F01FFC3FBF
:100710003E381F381F381E001E003C007800F000D5
:10072000E001C003C003C007C007000000000000D4
:10073000C007C007C0070000000000000000000064
:10074000F803FE0F1E1F0F3E7F3CFF78EF79C77343
:10075000C7F38FF38FF38FF39FF39FF3FF73FF7B49
:10076000F779003C1C1FFC0FF8030000000000009C
:1007700000000000000000000000E003E003F007BC
:10078000F007F007780F780F7C0E3C1E3C1E3E3CB5
:10079000FE3FFF3F1F780F780FF007F007F00000D3
:1007A0000000000000000000000000000000F83F12
:1007B000FC3F3E3C1E3C1E3C1E3C3E3C7C3CF03F15
:1007C000F83F7E3C1F3C1F3C0F3C0F3C1F3CFE3F54
:1007D000F83F0000000000000000000000000000E2
:1007E0000000FF01FF07871F003E003C007C0078EF
:1007F0000078007800780078007C007C003E003FA4
:10080000831FFF07FF010000000000000000000040
:10081000000000000000F07FFC7F7E781F781F78CA
:100820000F780F780F780F780F780F780F780F7890
:100830001F781E787E78F87FE07F000000000000BF
:1008400000000000000000000000FF3FFF3F003EEE
:10085000003E003E003E003E003EFE3FFE3F003EAA
:10086000003E003E003E003E003EFF3FFF3F0000D6
:100870000000000000000000000000000000FF1F5A
:10088000FF1F001E001E001E001E001E001EFF1F78
:10089000FF1F001E001E001E001E001E001E001E68
:1008A000001E00000000000000000000000000002A
:1008B0000000FE03FF0F871F003E007C007C0078D5
:1008C00000F800F87FF87FF80F780F7C0F7C0F3E60
:1008D0008F1FFF0FFE03000000000000000000005B
:1008E0000000000000001F7C1F7C1F7C1F7C1F7C01
:1008F0001F7C1F7C1F7CFF7FFF7F1F7C1F7C1F7C5A
:100900001F7C1F7C1F7C1F7C1F7C000000000000E0
:1009100000000000000000000000FF3FFF3FE00378
:10092000E003E003E003E003E003E003E003E003AF
:10093000E003E003E003E003E003FF3FFF3F0000CC
:100940000000000000000000000000000000FC1F8C
:10095000FC1F7C007C007C007C007C007C007C0018
:100960007C007C007C007C0078007800F838F03F48
:10097000C03F000000000000000000000000000078
:1009800000001F3C1E3C3C3C783CF03CE03DE03F1E
:10099000C03F803FC03FE03FF03DF03C783C7C3CB6
:1009A0003E3C1F3C0F3C0000000000000000000027
:1009B000000000000000003E003E003E003E003E01
:1009C000003E003E003E003E003E003E003E003E37
:1009D000003E003E003EFF3FFF3F000000000000E1
:1009E000000000000000000000001FF81FFC1FFCBA
:1009F0003FFE3FFE3FFE7FFF77FF77FFF7F7E7F70A
:100A0000E7F3E7F3C7F307F007F007F007F000009C
:100A100000000000000000000000000000000F7C4B
:100A20000F7C0F7E0F7F0F7F8F7F8F7FCF7FEF7BBE
:100A3000EF79FF79FF78FF787F783F783F781F78EC
:100A40001F7800000000000000000000000000000F
:100A50000000F007FC1F3E3E1F7C0F780F780FF858
:100A60000FF80FF80FF80FF80FF80F780F781F7CBA
:100A70003E3EFC1FF00700000000000000000000E8
:100A8000000000000000FC3FFF3F1F3E0F3E0F3EF6
:100A90000F3E0F3E1F3E3F3EFC3FF03F003E003EFC
:100AA000003E003E003E003E003E00000000000010
:100AB00000000000000000000000F007FC1F3E3EA8
:100AC0001F7C0F780F780FF80FF80FF80FF80FF85A
:100AD0000FF80F780F781F7C3E3EFC1FF8077C0054
:100AE0003F000F0003000000000000000000F03F86
:100AF000FC3F7E3C3E3C1E3C1E3C3E3C3C3CFC3CA9
:100B0000F03FE03FF03DF83C7C3C3E3C1E3C1F3C4F
:100B10000F3C00000000000000000000000000008A
:100B20000000FC07FE1F0E3E003C003C003C003E67
:100B3000C01FF80FFE037F001F000F000F001F20D3
:100B40003E3CFC3FF01F00000000000000000000E1
:100B5000000000000000FFFFFFFFE003E003E003F0
:100B6000E003E003E003E003E003E003E003E0036D
:100B7000E003E003E003E003E00300000000000006
:100B8000000000000000000000000F7C0F7C0F7CC4
:100B90000F7C0F7C0F7C0F7C0F7C0F7C0F7C0F7CFD
:100BA0000F7C0F7C1E3C1E3C3E3EFC1FF0070000ED
:100BB000000000000000000000000000000007F03E
:100BC00007F007F80F780F7C1E3C1E3C1E3E3C1EB3
:100BD0003C1F781F780FF80FF007F007F007E003CD
:100BE000E003000000000000000000000000000022
:100BF000000003E003F003F007F0E7F3E7F3E7F3A7
:100C0000E773F77BF77FFF7F7F7F7F7F7E7F7E3F6E
:100C10003E3E3E3E3E3E0000000000000000000060
:100C200000000000000007F80F7C1E3E3E3E3C1F07
:100C3000F80FF007E007E003E003F007F80F7C0F80
:100C40007C1E3E3C1F780F780FF000000000000073
:100C50000000000000000000000007F807780F7C8B
:100C60001E3C1E3E3C1F780FF80FF007E003E00328
:100C7000E003E003E003E003E003E003E00300003F
:100C80000000000000000000000000000000FF7FE6
:100C9000FF7F0F001F003E007C00F800F000E00125
:100CA000E003C007800F000F001E003E007CFF7FA6
:100CB000FF7F00000000000000000000FF07800729
:100CC00080078007800780078007800780078007EC
:100CD00080078007800780078007800780078007DC
:100CE00080078007800780078007FF07FF07000055
:100CF00000780078003C003C001E001E000F000F32
:100D000080078007C003C003E001E001F000F000AD
:100D1000780078003C003C001E001E000F000F0011
:100D200007000000F07FF000F000F000F000F0009D
:100D3000F000F000F000F000F000F000F000F00033
:100D4000F000F000F000F000F000F000F000F00023
:100D5000F000F07FF07F0000C000C001C001E003A0
:100D6000E003F007F0077807780F380F3C1E3C1EB1
:100D70001E3C1E3C0F380F78077800000000000072
:100D80000000000000000000000000000000000063
:100D90000000000000000000000000000000000053
:100DA0000000000000000000000000000000000043
:100DB000000000000000FFFFFFFF00000000000037
:100DC000F000000000000000000000000000000033
:100DD0000000000000000000000000000000000013
:100DE0000000000000000000000000000000000003
:100DF00000000000000000000000000000000000F3
:100E0000F80FFC3F7C3C3E003E003E00FE07FE1F0C
:100E10003E3E3E7C3E783E7C7E7CFF3FCF1F000006
:100E20000000000000000000003C003C003C003CD2
:100E3000003C003CF83DFE3F3E3F1F3E0F3C0F3C58
:100E40000F3C0F3C0F3C0F3C1F3C1E3C3E3FFC3F09
:100E5000F03B000000000000000000000000000067
:100E60000000000000000000FE03FF0F871F003E8F
:100E7000003E003C007C007C007C003C003E003ECC
:100E8000871FFF0FFE0300000000000000000000AD
:100E90001F001F001F001F001F001F00FF07FF1F74
:100EA0003F3E1F3C1F7C1F7C1F7C1F781F781F7CD0
:100EB0001F7C3F3C7F3EFF1FDF0F00000000000053
:100EC0000000000000000000000000000000000022
:100ED000F803FC0F3E1F1E3E1F3C1F7CFF7FFF7F61
:100EE000007C007C003C003E071FFF0FFE0300005B
:100EF0000000000000000000FF01E103C003C00784
:100F0000C007C007FF7FFF7FC007C007C007C0073B
:100F1000C007C007C007C007C007C007C007C00799
:100F2000C0070000000000000000000000000000FA
:100F30000000000000000000EF07FF1F7F3E1F3C85
:100F40001F7C1F7C1F781F781F781F7C1F7C3F3CF5
:100F50007F3EFF1FDF0F1E001E001E007C38F83F83
:100F6000003C003C003C003C003C003CFC3DFE3FA3
:100F70009E3F1F3F1F3E1F3C1F3C1F3C1F3C1F3C12
:100F80001F3C1F3C1F3C1F3C1F3C0000000000009A
:100F900000000000F001F00100000000000000006F
:100FA000E07FE07FE001E001E001E001E001E0013D
:100FB000E001E001E001E001E001E001E00100000A
:100FC0000000000000000000F800F8000000000031
:100FD00000000000F83FF83FF800F800F800F800C3
:100FE000F800F800F800F800F800F800F800F80041
:100FF000F800F800F800F000F071E07F003C003CE1
:10100000003C003C003C003C1F3C3E3C7C3CF83C2F
:10101000F03DE03DC03FC03FE03FF03DF83C7C3C50
:101020003E3C1F3C1F3C0000000000000000000090
:10103000F07FF001F001F001F001F001F001F001AA
:10104000F001F001F001F001F001F001F001F00118
:10105000F001F001F001F001F001000000000000DB
:101060000000000000000000000000000000000080
:101070009EF7FFFFFFFFFFFFE7FBE7F9C7F1C7F1AF
:10108000C7F1C7F1C7F1C7F1C7F1C7F1C7F1000058
:101090000000000000000000000000000000000050
:1010A00000000000FC3DFE3F9E3F1F3F1F3E1F3CD7
:1010B0001F3C1F3C1F3C1F3C1F3C1F3C1F3C1F3C58
:1010C0001F3C0000000000000000000000000000C5
:1010D0000000000000000000F007FC1F3E3E1F3C27
:1010E0001F7C0F780F780F780F780F781F7C1F3CCC
:1010F0003E3EFC1FF0070000000000000000000062
:10110000000000000000000000000000F83DFE3F6D
:101110003E3F1F3E0F3C0F3C0F3C0F3C0F3C0F3C33
:101120001F3C1E3E3E3FFC3FF83F003C003C003C65
:10113000003C003C00000000000000000000000037
:10114000EE07FE1F7E3E1E3C1E7C1E781E781E781B
:101150001E781E781E7C3E7C7E3EFE1FDE0F1E002B
:101160001E001E001E001E00000000000000000007
:10117000000000007F1FFF1FE71FC71F871F001F02
:10118000001F001F001F001F001F001F001F001F67
:10119000001F000000000000000000000000000030
:1011A0000000000000000000FC07FE1F0E1E003EB5
:1011B000003E003FE01FFC07FE003E001E001E0038
:1011C0003E3CFC3FF01F000000000000000000005B
:1011D000000000000000800780078007FF7FFF7F7E
:1011E00080078007800780078007800780078007C7
:1011F00080078007C007FF03FF0100000000000018
:1012000000000000000000000000000000000000DE
:101210001E3C1E3C1E3C1E3C1E3C1E3C1E3C1E3CFE
:101220001E3C1E3C3E3C7E3CFE3EFE1FDE0F000090
:1012300000000000000000000000000000000000AE
:101240000000000007F00F780F781E3C1E3C1E3E89
:101250003C1E3C1E780F780FF00FF007F007E003FC
:10126000E00300000000000000000000000000009B
:10127000000000000000000003F0E3F1E3F3E7F3F7
:10128000F7F3F7F3F77F777F7F7F7F7F7F7F3E3EA8
:101290003E3E3E3E3E3E00000000000000000000DA
:1012A0000000000000000000000000000F7C1E3E57
:1012B0003C3E3C1FF80FF007F007E003F007F8078B
:1012C000F80F7C1E3E3E1F3C1F780000000000000F
:1012D000000000000000000000000000000000000E
:1012E00007F80F780F7C1E3C1E3C3C1E3C1E3C1F2A
:1012F000780FF80FF007F007E003E003C003C00326
:10130000C0038007800F007F000000000000000085
:1013100000000000FF3FFF3F1F003E007C00F80080
:10132000F001E003C007800F001F001E003CFF7F9C
:10133000FF7F00000000000000000000FE01E0034D
:10134000C003C003C003C003E001E001E001C0012D
:10135000C003803F803FC003C001E001E001E00125
:10136000C003C003C003C003E003FE017E00000011
:10137000C001C001C001C001C001C001C001C00165
:10138000C001C001C001C001C001C001C001C00155
:10139000C001C001C001C001C001C001C001C00145
:1013A000C0010000C03FE003E001E001E001E00116
:1013B000C001C003C003C001E001FE00FE00E00167
:1013C000C001C003C003C001E001E001E001E00191
:1013D000E003C03F003F00000000000000000000EC
:1013E0000000000000000000000000000000073FB7
:1013F000C77FE773FFF17EF00000000000000000EF
:10140000000000000000000000000000F1B5A4B0E2
:101410000E0014001D004A487844FF30253003C8F0
:1014200022AA03C2049600200D9001E0019824181E
:1014300000206946488022AB0022D243210000A848
:10144000801C01F044F90190012805DA2078411E42
:101450008941C943C90F0191684640882528019EEA
:1014600000D1761E012E0EDB270039780498249ACD
:1014700090470490002800D1F4E20D98401C0D9094
:101480007F1C761EF1D168464088252807D10020B0
:101490000790089009900A900B900C9008E068461D
:1014A00040880028C2D10D98DEE2010001200843E7
:1014B000641C21782029F8D023290ED02B2904D0B0
:1014C0002D2907D030290BD00DE001000220084360
:1014D00080B2EDE701000420F9E701000820F6E7FB
:1014E00001001020F3E72A290FD1296829600A6832
:1014F000091D29600F92002A05D551420F91010064
:101500000420084380B2641C12E000210F910AE01D
:101510000F9A7B4B9A4205D093009A1852005118AB
:1015200030390F91641C21780A00303A0A2AEFD32F
:1015300021782E2906D00021C9430E9121E000BF59
:1015400088360000641C21782A2907D1296829607F
:101550000A68091D29600E92641C12E000210E9198
:101560000AE00E9A664B9A4205D093009A185200F0
:10157000511830390E91641C21780A00303A0A2A39
:10158000EFD302A9088726783100044878440C304C
:1015900001F0ABF8002803D0641C02E034360000F0
:1015A000002602A83A30067002A83A30007868286F
:1015B00004D12178682901D1622005E06C2807D187
:1015C00020786C2804D1712002A93A310870641C7B
:1015D00012A806902678641C300025382AD01C38C2
:1015E00000D1D6E0001F022800D8D2E0133800D185
:1015F000F6E0093800D1CCE0801E00D15EE1401E4B
:1016000000D132E1401E022800D8C2E0001F00D104
:101610002BE1401F00D18DE0401E00D1E0E0401ED4
:101620002FD0C01E0BD0801E00D1D9E0C01E00D12B
:10163000D6E066E101200790252012A99FE002A8CC
:101640003A3000786C282868286016D00668001D9B
:10165000286005960E9F002F03D5300001F04FF84B
:1016600009E03A000021300001F051F8002801D0D3
:10167000801B00E0380008904FE10268001D2860E0
:1016800038E1286828600268001D28600020C043F7
:101690000021104002AA03C212A80590069B3C2616
:1016A00002A803C8002904D1002802D10E9A002AFA
:1016B00014D0761E01960207120F3032D2B23A2AA7
:1016C00000DB27329A5500090A071043090901D1A6
:1016D000002803D0059A9F19BA42EAD33C20801B08
:1016E0000890991905910E9988420DDA081A0A9006
:1016F00002A8008F0349014002A801870DE100BF45
:10170000FFFFFF7FEFFF0000002900D405E102A9E1
:101710003831097814220A40102A00D0FDE00F99D0
:10172000079A891A0A9A891A0E1A012E00DAF4E029
:101730000A96F2E002A83A300078622819D06828A8
:1017400006D06A280CD06C281BD0712808D018E06D
:10175000286828600168001D28600D980880DCE07A
:10176000286828600268001D28600D98C11703C210
:10177000D3E0286828600168001D28600D98087073
:10178000CBE0286828600168001D28600D9808607B
:10179000C3E02A68D21D072082432A6003CA2A6058
:1017A00002AA03C2002903D5012007902D200CE0D6
:1017B00002A8008F810703D5012007902B2004E0A9
:1017C000C00704D501200790202012A9087012A894
:1017D000079940180590310002A800F0AFFB9CE08B
:1017E00002A83A3002786C2A0BD0712A01D06A2AFA
:1017F00007D12B68DB1D072083432B6003CB2B60B5
:1018000005E0296829600868091D2960002102ABEC
:1018100003C3682A03D102A803C880B20BE0622A7E
:1018200003D102A803C8C0B205E0742A01D07A2A05
:1018300004D102A803C8002102AA03C202A83830BA
:101840000078000731D502A803C8002901D100287B
:101850002BD020203043782827D1302012A90870BF
:101860000220079012A846701FE0290002A83A3013
:10187000007800F0FBF802AA03C202A8002904DAEB
:101880000798411C07912D210DE0008F810704D599
:101890000798411C07912B2105E0C00705D5079843
:1018A000411C0791202112AA115412A8079940182F
:1018B0000590310002A800F0A7FA2EE002A83A3005
:1018C00000786C2809D001200790286828600168FA
:1018D000001D286012A801701FE0286828600168B8
:1018E000001D286068468180002001A94880C0430F
:1018F0000E9001AA02A9249800F0ECF800280CD55B
:10190000B0E001200790252012A90870002E04D015
:101910000798411C079112A90E540F980799401A75
:101920000A99401A0899401A0B99401A0999401AC5
:101930000C99401A019002A838300078400711D461
:10194000202069460870002609E001236A4602A9A2
:10195000249800F0A4FE002800D083E0761C0198B3
:101960008642F2DB079F12AE0BE031780498249A8E
:1019700090470490002875D00D98401C0D90761C5F
:101980007F1E002FF1D13020694608700A9F002683
:1019900008E001236A4602A9249800F080FE00288E
:1019A00060D1761CBE42F4DB089F059E0BE03178C7
:1019B0000498249A90470490002853D00D98401C16
:1019C0000D90761C7F1E002FF1D1302069460870E3
:1019D0000B9F002608E001236A4602A9249800F024
:1019E0005EFE00283ED1761CBE42F4DB099F0598BE
:1019F000089946180BE031780498249A904704908F
:101A000000282FD00D98401C0D90761C7F1E002FB3
:101A1000F1D13020694608700C9F002608E00123B0
:101A20006A4602A9249800F03AFE00281AD1761CD2
:101A3000BE42F4DB02A838300078400700D4F7E457
:101A4000202069460870002600E0761C0198864236
:101A500000DBEDE401236A4602A9249800F01FFE92
:101A60000028F2D00020C04325B0F0BD0A00622853
:101A700022D0682819D06A2808D06C2823D0712871
:101A800004D074281FD07A2808D01CE01368DB1D0E
:101A900007208343136003CB136070471168116004
:101AA0000868091D116000217047116811600868FD
:101AB000091D116000B20BE0116811600868091D72
:101AC000116040B204E0116811600868091D1160DE
:101AD000C1177047F4B598B007000C00206B0028C0
:101AE00000D50E48029000F01EFE616B08180490AD
:101AF00009487844223003C806AA03C23820205C73
:101B0000400702D4049841280AD208A80390402034
:101B10000490002613E000BFC0300000FFFFFF7FED
:101B200000F006FE03900028F3D10020C04369E1D5
:101B30001898801C189002980099401A02900298F8
:101B4000012800DAD1E006AA1898018801A8401CF3
:101B500000F04AFE0090002800D5DAE018980088CE
:101B6000002804D10098401E009000D5D1E00298D2
:101B70000099884200DAB8E060690499009A8218F6
:101B8000914200D3A0E066634142206A081AA1692D
:101B9000401A616A401AE169401AA16A401A059028
:101BA0003820205C400711D42020694608710025A8
:101BB00009E0012301AA2100380000F070FD00288F
:101BC00000D0A6E06D1C05988542F2DB6669039D96
:101BD0000BE02978A068B847A060002800D198E001
:101BE000E06A401CE0626D1C761E002EF1D13020B0
:101BF00069460871266A002509E0012301AA21002F
:101C0000380000F04CFD002800D082E06D1CB54289
:101C1000F3DBA669E5680AE02978A068B847A06008
:101C2000002876D0E06A401CE0626D1C761E002E13
:101C3000F2D1302069460871666A002508E0012368
:101C400001AA2100380000F02AFD002861D16D1C96
:101C5000B542F4DBE669E068A16945180AE0297835
:101C6000A068B847A060002853D0E06A401CE0623A
:101C70006D1C761E002EF2D1302069460871A66ACE
:101C8000002508E0012301AA2100380000F007FD2B
:101C900000283ED16D1CB542F4DB3820205C4007A3
:101CA00010D5202069460871002508E0012301AA0B
:101CB0002100380000F0F3FC00282AD16D1C0598A3
:101CC0008542F3DB00266661009A01A9491C03984E
:101CD0006369C01800F094FD606900994018606164
:101CE00018980088002800D022E7606B6169401ACC
:101CF000216A401AA169401A616A401AE169401AD2
:101D0000A16A401A02903820205C400711D40025B7
:101D10000CE00026F6436EE02021A068B847A060E2
:101D20000028F6D0E06A401CE0626D1C02988542F3
:101D3000F2DB6369039A2100380000F0B0FC002850
:101D4000E7D1206A0090002509E03021A068B8475B
:101D5000A0600028DDD0E06A401CE0626D1C0098A5
:101D60008542F2DBA369E2682100380000F097FCAD
:101D70000028CED1606A0090002509E03021A068DB
:101D8000B847A0600028C4D0E06A401CE0626D1C27
:101D900000988542F2DBE369E068A16942182100FE
:101DA000380000F07CFC0028B3D1A06A0090002528
:101DB00009E03021A068B847A0600028A9D0E06AF7
:101DC000401CE0626D1C00988542F2DB3820205CEC
:101DD00040070ED5002509E02021A068B847A06083
:101DE000002896D0E06A401CE0626D1C0298854293
:101DF000F2DB66616663039808A9884201D000F0AF
:101E00002DFD300019B0F0BDF3B583B0006900902E
:101E10006846027C6F2A01D1082406E02021114384
:101E2000782901D00A2400E010243C25039803C837
:101E300006000F00642A01D0692A07D1002905DABB
:101E400000200021801BB94106000F00002F12D195
:101E5000002E10D10398006B00280CD1082C3CD127
:101E6000039838300078000737D53B25302000999B
:101E70003B31087031E06D1E0195300039002200C1
:101E8000E31700F02FFD3032D2B23A2A03DB684666
:101E9000007C513812180098425530003900220059
:101EA000E31700F01FFD06000F0001D1002E05D042
:101EB0000398C068009949198842DCD3082C0CD1DA
:101EC000039838300078000707D50098405D302827
:101ED00003D06D1E3020009948553C20401B0399CB
:101EE000886100994919039AD1600399096B884266
:101EF00009DA081A039908620398008F0E49014015
:101F00000398018715E0002913D503993831097822
:101F100014220A40102A0CD10399496B039A526982
:101F2000891A039A126A891A0D1A012D01DB039886
:101F3000056205B0F0BD0000EFFF0000F3B591B001
:101F400006AD03C802AA03C212A8007820210143EB
:101F5000009161290BD01198006B002801D5062053
:101F600003E004D1672902D1012011990863119877
:101F700041684800400DAA4A904225D1080310D17B
:101F80001198006800280CD103201199886112A8CB
:101F9000007861381A2842D3234878448A30009068
:101FA0000BE003201199886112A8007861381A2883
:101FB00031D31E4878447430009003220099119860
:101FC000C06800F01DFCF1E1012817DA119800F05B
:101FD000BEFC012812DB002700260098612832D1C0
:101FE0001198C06830210170401C411C119AD160C9
:101FF00012A9097861291FD178211EE01199496839
:10200000884A0A4088491143119A51608749461A03
:102010000027FF43E1E7064878441430CCE7054841
:1020200078441030BBE700BFC42B0000B82B000081
:10203000B02B0000B42B00005821017011984069AA
:10204000801C11994861002F03D1002468468780C5
:10205000A2E10098612800D09FE01198046B002C49
:1020600001D5212400E0641C24B2601C009011986A
:1020700003C804AA03C202A803C80022002300F078
:1020800088FC04A803C802D280221206514002AA8A
:1020900003C2301F6946888000270F7606AE761C83
:1020A00000E0F61D0098012830DB02A803C80022DA
:1020B000002300F087FC29D21C2102A800F0B0FC0C
:1020C00002A803C800F03AFD05000098C01F009068
:1020D00001280ADB280000F05FFD02000B0002A8C7
:1020E00003C800F0D0FD02AA03C2F61D072004E0D9
:1020F000761E2907090F31702D11012D01DB401EBD
:10210000F6D5401ECDD4761E3770FAE706A8401CDF
:10211000311A06AD6D1CA14200DA0C0024B2200079
:1021200032D4884205DA06A909184978082900DB63
:102130000F2706A9091801E0641E491E401E0A78EF
:10214000BA42F9D00F2F04D106A909184A78521CB7
:102150004A70002806D506AD641C019800B2001D27
:102160006946888024B2601E0ED429180A7830325D
:10217000D2B23A2A03DB12AB1B783A3BD2180A7070
:10218000401E491E0028F1D51198006B002800D48C
:1021900002E1601E11990863FEE002A803C8002254
:1021A000002300F0F6FB06D202A803C88022120624
:1021B000514002AA03C236B27D4870437D4900F007
:1021C000EFFD694688800720019909B2421A002074
:1021D0007949012A20DB049202AA30CA00260F00A6
:1021E0000498C00707D532003B002000290000F00A
:1021F00031FE04000D0004984010049030003900B6
:1022000032003B0000F026FE06000F000498002874
:10221000E6D102A830C028E054420026674F18E0FB
:10222000FF070000FFFF0F800000E03FFE030000FB
:10223000E00707D504A803C832003B0000F00AFEFF
:1022400006000F00641004A803C804AA0CCA00F01A
:1022500001FE04AA03C2002CEAD102A803C832007E
:102260003B0000F0B9FE02AA03C20098662803D121
:10227000019800B20A3000E006201199096B081895
:102280000490142801DB132004903020694608765E
:1022900006AC641C049801283ADB02A803C800F0CD
:1022A0005FFC05000834042628000A2100F07BFDAD
:1022B0000F0028000A2100F076FD0500641E30376B
:1022C00027700A2100F06FFD0F0028000A2100F09E
:1022D0006AFD0500641E30372770761EE4D108348D
:1022E0000498083804900128D4DB02A803C800F041
:1022F00037FC00F05BFC02000B0002A803C800F0F2
:10230000C2FC00222E4B00F0A5FD02AA03C2C4E7C6
:1023100006A8401C201A06AD6D1C6A4605E0401E4A
:10232000019909B2491E91806D1C29783029F6D097
:102330000099662903D1019909B2491C04E0652975
:1023400001D1012100E00021119A126B541824B22E
:10235000A04200DA040024B221001DD4814204DA34
:10236000685C352801DB392000E030206A1800E085
:10237000641E521E491E13788342F9D0392802D1B7
:10238000685C401C6854002906D56D1E641C0198C9
:1023900000B2401C69468880019800B2009023B2C8
:1023A0002A0012A80178119800F00CF813B0F0BDC3
:1023B00097750000A0860100000024400000F03F57
:1023C00084D79741F3B589B015001C0000F07FFE5B
:1023D0000190406A0078694608720998076B012CE1
:1023E00001DA0124ADA50AA8017820200843109E37
:1023F000662801D1761C18E0672800D09FE036B22D
:102400000321C9438E4200DA9DE0BE4200DB9AE020
:10241000761C099838300078000702D4BC4200DAF4
:10242000270036B2BF1B00D500270998C06800906E
:102430000998806900990918019136B2012E2CDAA9
:10244000401C3021019A1170012F04DA09993831AA
:102450000978090704D56946097A009A1154401C85
:10246000099988617042874200DA7E4236B2704232
:1024700009994862BF19A74200DA3C0024B20998C2
:10248000C461220029000098099B9B69C01800F0D4
:10249000B7F9381B09998862E1E0B44220DA2200DA
:1024A0002900019800F0ACF9099989690919099A7C
:1024B0009161301B099A5062012F04DA0998383073
:1024C0000078000709D56846007A099AD268505406
:1024D0000998C069401C0999C86109988762BEE0E3
:1024E00032002900019800F08BF909988069801961
:1024F000A41B012F04DA099938310978090705D599
:102500006946097A099AD2681154401C0999886170
:1025100024B2A74200DA3C0024B22200A91909988B
:10252000C068099B9B69C01800F06AF90998806926
:10253000001909998861381B099948628FE061295F
:1025400014D1702015E0BC4205DA099938310978B8
:10255000090700D427007F1E00D500270AA80078AD
:10256000672801D1652004E0452002E0412902D11D
:1025700050200AA9087009988169481C099AD268F4
:1025800000922A78009B5A54691C012F07DA099A95
:1025900038321278120702D4099988611BE06A4622
:1025A000127A009B1A54401C099A9061012F12DB89
:1025B000641E24B2A74200DA3C0024B22200009B31
:1025C000181800F01DF909988069001909998861A7
:1025D000381B099948620998C068099989694518A2
:1025E0000AA8007828706D1C36B2300003D42B2066
:1025F00028706D1C03E02D2129706D1C46420024BB
:1026000005AF08E00A2203A800F07CFD04983870AA
:10261000039E641C7F1C31B20129F3DA022C08DA14
:102620000AA8007820210143652902D130202870B2
:102630006D1C002C09D1302028706D1C07E0641E31
:1026400005A8005D303028706D1C012CF7DA099860
:10265000C068099989694018281A0999C8610998B8
:102660003830007814210140102914D109984069AC
:102670000999896940180999496A40180999C969ED
:1026800040180999896A40180999496B884202DA09
:10269000081A099908620BB0F0BD0000300079B546
:1026A0000E0014001D00002005E0F06A401CF062DE
:1026B0000020641C6D1E002D08D02178B068009A9F
:1026C0009047B0600028F0D10020C04376BDF8B537
:1026D00004000F0015001E0000F024FD33002A0046
:1026E0003900200000F032FDF2BDC9B200E0401C0C
:1026F00002788A4202D0002AF9D1002070470100F6
:1027000000E0491C0A78002AFBD1081A7047C9B2B8
:1027100001E0401C521E002A03D003788B42F8D1FE
:1027200070470020704780B500F0FCFC012002BD1E
:1027300070B505002C000F3407208443C046C04606
:10274000A54233D2082C04D2082402E0083000F05D
:1027500085F82448026811000CD1011D0A68002A7E
:1027600020D01368A34212D2111DF7E71D68A542BD
:102770000DD2191D0B68002BF8D11268011D00E065
:10278000191D0B6893420DD01D68A542F8D300298E
:102790000CD00D682A681300083BA3420AD26A686D
:1027A0000A600FE000F0F0FC0028CFD1C046C04620
:1027B000002070BD2B190B606E685E60121B0B68E9
:1027C0001A602C600968002904D04A68002A01D0E8
:1027D000091D00E000210160C046C0460835280000
:1027E00070BD00006801002070B504000D001600E7
:1027F00000F098FC32002900200000F09DFC70BD24
:10280000124207D08B0706D00B78491C0370401C7E
:10281000521EF7D87047830706D00B78491C037007
:10282000401C521EF9D1704770B4103A03D378C9D6
:10283000103A78C0FBD2530701D318C918C001D58C
:1028400008C908C0D20704D30B880380891C801CE8
:10285000002A01D50B78037070BC7047002800D1A6
:10286000704738B5083804002068082836D3400778
:1028700034D1C046C0461A484168002901D08C4274
:1028800003D26160446019E019004B68002B01D04D
:10289000A342F9D30B68CD18AC421DD3A54204D195
:1028A00022689A180A600C0008E04A68002A03D0DF
:1028B0002368E3189A420FD362604C606168002974
:1028C0000AD02268A3188B4206D10023036008684F
:1028D0001018206048686060C046C04631BD0000E6
:1028E00068010020124224D0994228D970B50025F1
:1028F0001B4202D00C00002109E0002401264918E7
:102900006441944200D3A41A7641F8D331000126E1
:1029100001E0764109D2001864416D41A41A9D413D
:10292000F7D2A4185D41B619F5D3300022002B0070
:1029300070BD1B42D8D108B500F03CFC08BD01D1E8
:102940009042D3D202000B0000210020704730B427
:1029500001004B68802212061A4001201B031B0B4A
:102960004B600BD10B68002B08D10DE00B686400A5
:10297000DD0F25434D605B000B60401E4C68E30299
:10298000F4D523031B0B4B604B681A434A6030BCE1
:10299000704730B4012464054D00EC420BD85D0053
:1029A000EC4208D80C001C4364000443144304D2D6
:1029B000994200D1904230BC7047FCD08B42FAD192
:1029C0008242F8E730B4012464054D00EC420BD894
:1029D0005D00EC4208D80C001C436400044314431F
:1029E00004D28B4200D1824230BC7047FCD0994265
:1029F000FAD19042F8E730B4012100220368001DAB
:102A0000002B0BD00468001D0C4202D04D466D1EF9
:102A100064192260241D1B1FF0D0FAE730BC7047F8
:102A200070B504000D0060684000400D3F4EB0429C
:102A300007D16068000302D12068002816D0022068
:102A400070BD002804D12000FFF781FF01286BDA58
:102A5000012D0DDB311A8D420AD36068002802D5A2
:102A60000020334901E00020310503C4012070BD7E
:102A70004142A942616806DA2E4A0A402818000538
:102A80001043606047E08022120611406268120322
:102A9000120B80235B0313436360401E2D1800203C
:102AA0002A003532352A02D36160206070BD0022D1
:102AB0001E23DB439D4204DA2035226863682360CD
:102AC0006060684211D0521E9241D243D20F20233F
:102AD0001B1A25689D402A432568C54066689E40AC
:102AE0002E4326606368C34063606068084360608B
:102AF0001148824206D28020000682420ED1207800
:102B0000C0070BD52068401C20602068002805D134
:102B10006068401C60600020C04370BD60688842EF
:102B2000F9D120680028F6D1002070BDFF07000011
:102B30000000F0FFFFFF0F8001000080F4464A18FC
:102B400005D200F00FF801D580174008604700F06B
:102B500009F80121C907884200D9080040426047AE
:102B60004A1812D2400DC90208430121C90708437F
:102B7000520D40210901521A521C06D452421F32F2
:102B800001D4D0407047C0177047002070470268DA
:102B9000531C036011707047010009D5F446404290
:102BA00000F006F80122D20711436047010000BF80
:102BB00042221201D21E004207D002D4521E001837
:102BC000FCD5C10A40051205891870478B4200D117
:102BD000824205D98446100062468C46190063463D
:102BE000DF184C18640D7F0D3AD0661C760537D07F
:102BF000E61B352E34DCDB022B43DB0A0C0DC9024D
:102C00002943C912202E0DDB1700203E06D01F00DD
:102C1000F741F3405F400026012A7741C018714117
:102C20000DD217E01700F741F2405740F3415A40E8
:102C3000B340F3405A400026801859410AD3A21CE1
:102C400052050FD0C207012F724117004008CB0771
:102C500018434908641C24054208AF417041614192
:102C6000F0BC7047641C21050020F9E76B4010E0C0
:102C70006B40ABE7F742F3D1E943F1E72442EFD1F0
:102C800000200021ECE7F0B40125ED070F005F40C4
:102C9000EED40C00871A9C4105D2C01BA141D21969
:102CA000634169406B40AE0ADF184C18F442E1D230
:102CB000640D7F0DE2D0E61B362ED1DCDB022B4308
:102CC000DB0AA4460C0DC9022943C90A012E28DCDF
:102CD00004D1D6075208DF073A435B08EF0A764271
:102CE0009041994114D039423BD1B61940414941F4
:102CF000761C394204D1761C001849413942FAD079
:102D0000B9436746B74208D9A41B24052143A7E766
:102D10000042EAD13642E8D1A2E7E40AE107002006
:102D20009EE7202E0BDD203E1F00F340F7415F4061
:102D3000012A002257417E42984191410BE0170041
:102D4000F741F2405740F3415A40B340F3405A40F4
:102D50007E42904199410A0303D2641EB619404154
:102D600049410027641E24054208AE417841614173
:102D7000F0BC7047F446002804D4494200F013F830
:102D8000404260474042002905D45FD000F00BF874
:102D9000404249426047494200F005F849426047D5
:102DA00003460B43E6D40022030A8B420BD20309ED
:102DB0008B4219D243088B422ED2411A00D20146CF
:102DC000524110467047FF2209023FD012068B4243
:102DD00005D3121209028B4201D312120902030910
:102DE0008B4219D300E0090AC3098B4201D3CB01FE
:102DF000C01A524183098B4201D38B01C01A524140
:102E000043098B4201D34B01C01A524103098B4243
:102E100001D30B01C01A5241C3088B4201D3CB002E
:102E2000C01A524183088B4201D38B00C01A524111
:102E300043088B4201D34B00C01A5241884200D351
:102E4000401A5241CFD201461046704708B500F0F3
:102E5000B3F908BDF0B50E005E400125ED072E4028
:102E6000B446AE0ADF184C18F44208D2F7420ED22C
:102E7000640D01D07F0D12D100206146F0BD05D157
:102E8000F74201D87F0D05D10020C143F0BDFBD131
:102E9000640DF9D00020C143490549088FE0E419C9
:102EA000C902DB0229432B43DB0A460DC002314332
:102EB0008E4630B487B295B27D432E0CADB2140C61
:102EC0007C43A419260C240425439CB27C43A419FA
:102ED000190C7943270CC919A4B20F043C43090CFF
:102EE000000C97B247432E0CBE193543ADB2170CF8
:102EF0004743360CBF19A6B2BF193E043543240C14
:102F00003E0C36199FB24743BF19BCB23E0C89191B
:102F10001F0C47437F183E043443390C704680B27F
:102F200097B247432E0CBE193543ADB2170C474339
:102F3000360CBF19A6B2BF193E043543240C3E0C13
:102F400036199FB24743BF19BCB23E0C89191F0CFA
:102F500047437F183E043443390C77463F0C90B208
:102F600078432E0C80190604ADB22E43050CA0B296
:102F70002D18120C7A435019020C80B2240CA4189C
:102F80009AB27A43121914042043120C89181B0CAC
:102F90007B43C91830BCEF0A394203D1B61940410E
:102FA0004941641E6F12BF0DE41B0BDBFF19BC42CD
:102FB00011DA240500274208AE4178416141664696
:102FC0003143F0BD641C05D1401C6141CF0201D3E7
:102FD0004908F4E750E75DE7F0B40E005E400125D4
:102FE000ED072E40B446AE0ADF184C18F4423BD22F
:102FF000F74241D2640D43D07F0D38D0E41BC902A3
:10300000DB0229432B43CF0ADB0A0600B61A9F4195
:1030100004D2641EB6197F41B6185F416812800D54
:1030200024180018844222DAE80C0021B6197F41E6
:10303000B61A9F4102D2B6185F413F1C4041494138
:10304000F4D3241C21DD2405B6197F41B61A9F4113
:1030500005D33743C60737430026012F704161412E
:1030600066463143F0BC7047FCD1F74205D20020E0
:10307000C14349054908F3E704D00020C143F1E703
:103080007F0DFAD000206146ECE72442FAD1401CC3
:1030900061410F03F6D30020E2E7FEE780B5124856
:1030A00000F08BF811A1016041608160C160016195
:1030B000416181610EA242628162C162016341632A
:1030C0000CA282630DA2C2630164416401BD10B50C
:1030D000054800F072F804002068002801D1FFF7CD
:1030E000DDFF200010BD00000000002000000000F7
:1030F0002E00000066616C736500000074727565D7
:10310000000000007CB504000E001500300029000E
:10311000FFF746FE00904543701B0190684603C8C8
:1031200003C476BD80B5034800F047F8806902BD4E
:103130000000000090000020002804D10EA003C869
:1031400003C200207047017001207047002904D19C
:103150000BA003C803C300207047002A02D101203E
:10316000C0437047002801D00A7802800978481EC1
:103170008041C043C00F7047000000000000000005
:10318000000000000000000007490868002801D086
:103190000020704705480722904308600449914386
:1031A000091A0160704700BF800100208F050020D0
:1031B000880700207047FEE770477047F0B585B07C
:1031C0000400002C01D10120EEE2B24800680C217D
:1031D00001400191AF4800688021490208400090F9
:1031E0002078C00766D50198082807D001980C28D8
:1031F0000DD1009880214902884208D1A648006874
:10320000800357D56068002854D10120CCE2606863
:1032100080214902884207D19F48006880214902E5
:1032200001439D48016026E06068A021C9028842F0
:103230000ED1994800688021C90201439648016077
:10324000954800688021490201439348016012E0DB
:1032500091480068BE4901408F4801608E4800686F
:10326000802149020840039003988B490968B94AB4
:103270000A4089490A60606800280DD000F040FCCF
:10328000050085480068800314D400F039FC401B19
:103290006528F6D3032087E200F032FC05007E4863
:1032A0000068800306D500F02BFC401B6528F6D390
:1032B000032079E22078800771D5E06802900198B8
:1032C000042805D001980C2832D1009800282FD16D
:1032D00071480068400704D50298002801D10120F8
:1032E00062E2B6480068B64901402069000208431E
:1032F000B24908606848006809218843029901437F
:103300006548016000F050FBAE49624A126812093C
:103310001207120F895CC840AB490860002000F01A
:10332000C6FB0700FFB2002F39D03800C0B23BE225
:10333000029800281FD05848006809218843029944
:1033400001435548016000F0DBFB0500524800686E
:10335000400706D400F0D4FB401B0328F6D303201B
:1033600022E296480068964901402069000208431D
:103370009249086013E048480068012188434649A3
:10338000086000F0BDFB050043480068400706D513
:1033900000F0B6FB401B0328F6D3032004E220789C
:1033A000C0067BD50198002835D13B4800688005D0
:1033B00004D5E069002801D10120F5E17F480068CB
:1033C000BE490140606A08437C4908607B48006848
:1033D0000002000A216A09060143784801600120C1
:1033E000616A490B491C884080210902484375499C
:1033F000284A126812091207120F895CC8407249E4
:103400000860002000F053FB0700FFB2002F45D0FA
:103410003800C0B2C8E1E069002826D01E48006824
:103420008021490001431C48016000F069FB050050
:1034300019480068800506D400F062FB401B032891
:10344000F6D30320B0E15D4800689C490140606A02
:1034500008435A490860594800680002000A216A76
:10346000090601435548016018E00B480068BD4952
:1034700001400948016000F043FB05000648006870
:1034800080050BD500F03CFB401B0328F6D303203E
:103490008AE100BF0C1002400010024020780007B3
:1034A0002AD56069002813D0C04800680121014373
:1034B000BE48016000F024FB0500BC48006880079E
:1034C0001AD400F01DFB401B0328F6D303206BE148
:1034D000B648006801218843B449086000F010FB39
:1034E0000500B2480068800706D500F009FB401BC4
:1034F0000328F6D3032057E12078400700D49BE04F
:103500000026AB480068C00008D4A94800688021A4
:1035100049050143A648016001200600A54800684E
:10352000C00519D4A3480068802149000143A1487F
:10353000016000F0E5FA05009E480068C0050BD464
:1035400000F0DEFA401B6528F6D303202CE100BF13
:10355000FFFFFEFFFFFFFBFFA068802149008842BC
:1035600007D1924800688021490001438F480160DB
:1035700038E0A06800280CD18C48006879490140E7
:103580008A480160894800688B490140874801608A
:1035900028E0A068A021C900884217D183480068AC
:1035A0008021C90001438148016080480068802172
:1035B000490001437D48016014E000BF041002404F
:1035C000FFE0FFFF984C00080801002077480068E2
:1035D00064490140754801607448006876490140BB
:1035E00072480160A06800280ED000F089FA05003A
:1035F0006E480068800516D400F082FA401B6F49BF
:103600008842F5D30320CFE000F07AFA050067483E
:103610000068800507D500F073FA401B67498842AF
:10362000F5D30320C0E0F6B2012E05D16048006852
:10363000634901405E4801602078800640D5A0695A
:10364000002820D05F480068012101435D480160E7
:103650005D480068012101435B4801605B480068E8
:103660008021890101435948016000F049FA0500B1
:1036700054480068800723D400F042FA401B032816
:10368000F6D3032090E04F480068012188434D495C
:1036900008604E4800684E4901404C48016000F007
:1036A0002FFA050047480068800709D500F028FA7E
:1036B000401B0328F6D3032076E000BFFF1FFFFF67
:1036C000A06A00286FD001980C284DD0A06A02286B
:1036D00034D1B0480068B0490140AE48016000F004
:1036E0000FFA0500AB480068800106D500F008FA23
:1036F000401B0328F6D3032056E0A8480068A849D9
:103700000140E06A0843216B0143606B0843A34911
:103710000860A04800688021490401439D48016079
:1037200000F0EEF905009B48006880013BD400F0F2
:10373000E7F9401B0328F6D3032035E095480068DD
:10374000954901409348016000F0DAF9050091487D
:103750000068800127D500F0D3F9401B0328F6D379
:10376000032021E0FFFEFFFFA06A012801D1012014
:103770001AE08A48006800900098802149020840B9
:10378000E16A88420DD10098F02189030140206B45
:10379000814206D10098C02109040140606B81423A
:1037A00001D0012000E0002005B0F0BD5010024023
:1037B0003810024000700040FFFBFFFF891300003B
:1037C000FFFFFFEF081002403410024020000140CC
:1037D000FFDFFFFFF8B505000C00002D01D101202F
:1037E000D6E0704800680100C907C90FA1420FD296
:1037F0006C4800680121884320436A490860694891
:1038000000680100C907C90FA14201D00120BFE033
:103810002878800707D561480068F0218843A968A7
:1038200001435E4801602878C0076CD568680228AB
:1038300005D158480068800319D40120A8E06868C1
:10384000032805D153480068800110D401209FE06F
:103850006868012805D14F480068400707D4012057
:1038600096E04C480068800501D4012090E04B4868
:10387000006803218843696801434848016000F0FB
:103880003FF90600686802280DD1444800680C2101
:103890000140082937D000F033F9801B6E49884277
:1038A000F3D3032074E0686803280DD13B48006817
:1038B0000C2101400C2926D000F022F9801B66491A
:1038C0008842F3D3032063E0686801280DD13348B0
:1038D00000680C210140042915D000F011F9801B6B
:1038E0005D498842F3D3032052E02C4800680C2144
:1038F0000140002907D000F003F9801B5649884297
:10390000F3D3032044E0274800680100C907C90F2A
:103910008C420FD22348006801218843204321496B
:103920000860204800680100C907C90FA14201D002
:1039300001202DE02878400707D51848006847493E
:103940000140E8680843154908602878000708D551
:1039500012480068424901402869C00008430F49E5
:10396000086000F021F83F490C4A1268120912075A
:10397000120F895CC8403C490860002000F097F8AD
:103980000700FFB2002F02D03800C0B200E00020D4
:10399000F2BD000000100240FFFFFFFE0C100240CD
:1039A000FFFF02FF00200240FCB52A48006800909B
:1039B00000980C210140042904D008290CD00C29BE
:1039C0000DD037E029480068C00602D52848070016
:1039D00001E0284807003BE02748070038E0274877
:1039E0000099890C0907090F405C04000098800DBC
:1039F0008007800F401C050016480068C00306D5EC
:103A00001D4860432900FFF7CEF9060010E0174873
:103A10000068C00606D5164860432900FFF7C3F9C1
:103A2000060005E0134860432900FFF7BCF90600D3
:103A300037000DE012480068400B4007400F01902E
:103A400001200199491C8840802109024843070050
:103A50003800F6BD0C10024089130000FFF8FFFF8C
:103A6000FFC7FFFF984C000808010020001002402B
:103A700000093D000024F40000127A00DC4C00082C
:103A80000410024010B5002428480068402101437A
:103A900026480160002000F00AF8002802D001202A
:103AA000040001E000F04CF82000C0B210BD10B5D9
:103AB0000400FA2080001E490978FFF774F901001C
:103AC0001C480068FFF76FF900F004F9002801D0E6
:103AD00001200CE0042C09D2002221000020C04368
:103AE00000F0EEF814480460002000E0012010BD52
:103AF000124800680E49097840181049086070475C
:103B00000E480068704770B50400FFF7F9FF050024
:103B100026000020C043864202D0054800783618AF
:103B2000FFF7EEFF401BB042FAD370BD0020024009
:103B30000C01002008010020040100207C0100206D
:103B40002B48006801210143294801602948006889
:103B500080214905014327480160704770B586B050
:103B6000060001A8142100F0DDF8306822498842DF
:103B70003CD11F4800688021490101431C48016075
:103B80001E480068012101431C4801601B48006871
:103B90000100C907C90F0091009C18480068022164
:103BA0000143164801601548006802210840009052
:103BB000009D8020019002200290002003900320AD
:103BC00004900020059001A9A020C00500F0ACF8E9
:103BD000082001900220029000200390032004900E
:103BE0000020059001A9064800F09EF806B070BDBF
:103BF0003410024038100240003001402C100240C6
:103C000000040050F0B540B2002822D5344C40B238
:103C10000207120F083A1500AD0804225543304A36
:103C200040B203071B0F083B9B0804267343D2587E
:103C3000FF238607B60F08277E43B3409A438B01C4
:103C4000DBB28607B60F08277E43B34013436351A8
:103C50001CE0244A40B203009B0804246343D2586A
:103C6000FF238407A40F08256C43A3409A438B01CC
:103C7000DBB28407A40F08256C43A3401343194A01
:103C800040B20400A40804256C431351F0BD10B5E4
:103C90000400601E80214904884201D301200EE007
:103CA000601E1149086003210020C043FFF7AAFFEE
:103CB00000200E49086007200D490860002010BD53
:103CC00070B504000D0016002900200040B2FFF777
:103CD00099FF70BD10B504002000FFF7D8FF10BD9C
:103CE0001CED00E000E400E014E000E018E000E07B
:103CF00010E000E0130030B414001500103902D3B6
:103D000010393CC0FCD2490700D30CC000D504C018
:103D1000890002D30280801C002900D5027030BCCB
:103D2000704700000022E5E7F0B502000023002400
:103D300000250868D840002800D1E1E00868012685
:103D40009E4006403400002C00D1D7E0486801288E
:103D500008D04868022805D04868112802D0486871
:103D600012281CD19068050003201E0002277E4304
:103D7000B0408543C8681E0002277E43B0402843F8
:103D8000050095605068050001209840854348680B
:103D90000600F606F60F9E402E4335005560D068AB
:103DA000050003201E0002277E43B040854388683B
:103DB0001E0002277E43B04028430500D5604868B6
:103DC000022802D0486812281DD11800C008042615
:103DD00070431018006A05000F201E007607760F4A
:103DE00004277E43B040854308691E007607760F9E
:103DF00004277E43B040284305001800C00804266D
:103E00007043101805621068050003201E00022789
:103E10007E43B040854308798007800F1E0002274B
:103E20007E43B0402843050015604868C00065D552
:103E300039480068012606433748066037481E00A7
:103E4000B60804277E43805905000F201E00B607E0
:103E5000B60F04277E43B0408543A020C0058242B0
:103E600001D1002014E02E48824201D101200FE050
:103E70002C48824201D102200AE02B48824201D123
:103E8000032005E02948824201D1052000E00620F8
:103E90001E00B607B60F04277E43B0402843050036
:103EA0001E481E00B60804277E438551204800683E
:103EB0000500A5434868C00300D525431C4805609C
:103EC0001C4800680500A5434868800300D52543C9
:103ED00018480560184800680500A5434868C002F6
:103EE00000D5254314480560144800680500A54323
:103EF0004868800200D52543104805605B1C18E720
:103F0000F0BD00B5D2B2002A02D089B2816101E0D1
:103F100089B2816200BD00003410024008000140F7
:103F20000004005000080050000C0050001C00501D
:103F30000004014004040140080401400C04014055
:103F400080B5002280214901A020C005FFF7D9FFDC
:103F500001BD80B5012280214901A020C005FFF7E5
:103F6000D0FF01BD80B5002280210901A020C0053D
:103F7000FFF7C7FF0520FFF7C6FD012280210901D9
:103F8000A020C005FFF7BDFF01BD01B500228021C3
:103F9000C900A020C005FFF7B4FF0023DB430122C6
:103FA0006946C04800F0DCF901BD38B505000C00D9
:103FB00001228021C900A020C005FFF7A2FF002335
:103FC000DB43220092B22900B64800F0C9F931BDA6
:103FD000F8B5040020780500641C2800451EC0B216
:103FE00000282ED02778641C3800C0B2FFF7CDFF20
:103FF00020780600641C6846F6B2802131400180BA
:104000007606760EF6B2002E06D0F6B2310020000B
:10401000FFF7CBFFF6B2A419684600880028DCD071
:10402000207869460880641C68460088FF2803D110
:10403000FA2040006946088068460088FFF763FD63
:10404000CBE7F1BDF8B505000C0017001E002A20D3
:10405000FFF79BFF6846002101602800401C69466D
:1040600048703800401C6946C87004216846FFF754
:104070009CFF2B20FFF789FF2000801C69464870B9
:104080003000801C6946C87004216846FFF78DFF28
:104090002C20FFF77AFFF1BD80B5FFF751FFFFF746
:1040A00061FF8148FFF794FF8048FFF791FF804848
:1040B000FFF78EFFFFF74DFF01BD0BB4F0B582B0E7
:1040C00017006846008C09A949784018431EDBB2E6
:1040D0006846808B09A909784018421ED2B268460A
:1040E000018CC9B26846808BC0B2FFF7ABFF0020DD
:1040F000060009A84078864238D20A98FFB23900F3
:10410000203909AA52785143891902225143405A51
:1041100005000020040009A80078844224D2280069
:10412000A040000410D56846808D80B2000A694620
:1041300088706846808D00A9891C4870022100A8FB
:10414000801CFFF732FF0DE06846008E80B2000A47
:10415000694608706846008E6946487002216846C4
:10416000FFF723FF641CD6E7761CC2E702B0049871
:10417000F0BC04B0004708B4F0B584B005000E00F0
:1041800014000C9FFFF7DCFE207800282AD0ADB287
:1041900009A800782818A0280FDB0020050009A82E
:1041A00040783618B6B209A840783018802819DA55
:1041B0002078202801D1641CE6E7BFB20297684648
:1041C000808D019009A803C8009103002278310076
:1041D00089B2280080B2FFF770FF09A800782D1877
:1041E000641CD1E7FFF7B5FE04B00498F0BC02B040
:1041F0000047F8B504000D0016001F00A4B2A02C63
:1042000002DAADB2802D00DB49E0A4B2B6B2A0194B
:10421000401EA02802DBA020001B0600ADB2BFB2EA
:10422000E819401E802802DB8020401B0700FFF7B2
:1042300087FE280039004018431EDBB22000310001
:104240004018421ED2B22900C9B22000C0B2FFF706
:10425000F9FE6846008B80B2000A6946087068461D
:10426000008B6946487001228021C900A020C0054A
:10427000FFF747FE3D00ADB2002D0ED03400A4B2D2
:10428000002C08D00023DB4302226946054800F0D9
:1042900067F8641EF3E76D1EEDE7FFF75AFEF1BD08
:1042A0000000000010010020604B0008884C00084E
:1042B0009C4B000810B582B00400A4B20094802387
:1042C000A02200210020FFF794FF13BD10B50400C9
:1042D000002C01D1012040E0606A00280020A0628B
:1042E0005120205C002805D100205021605420007E
:1042F000FFF734FC022051216054206800684021FF
:104300008843216808606068A1680143E068084349
:104310002169014360690843A1698022920011402C
:104320000143E0690843216A0143A06A0843216808
:104330000860A069000C04210840616A01432068FC
:1043400041602068C069054901402068C1610020C2
:104350006065012051216054002010BDFFF7FFFF70
:10436000F2B584B0040017001D000026E0680028A4
:1043700005D1E068002802D1BFB2022FFFD3502040
:10438000205C012801D10220CBE0012050216054A3
:10439000FFF7B6FB0190684607815120205C012899
:1043A00002D002200600B4E00498002802D0BFB278
:1043B000002F02D101200600ABE003205121605400
:1043C0000020606504982063A786E7860020A0632C
:1043D0000020A0870020E087002060640020206487
:1043E000A06880210902884206D1206800688021E7
:1043F000C90101432068016020680068400605D4B7
:10440000206800684021014320680160E068802145
:104410000901884231D16068002803D068460089CC
:10442000012809D1206B00882168C860206B801C9E
:104430002063E08E401EE086E08E00284FD020688A
:10444000806880070AD5206B00882168C860206BCF
:10445000801C2063E08E401EE086EDE7FFF750FBF6
:104460000199401AA84203D30020C043854201D1DC
:10447000002DE1D1032006004BE06068002803D046
:1044800068460089012809D1206B007821680873EB
:10449000206B401C2063E08E401EE086E08E0028EA
:1044A0001DD02068806880070AD5206B00782168BD
:1044B0000873206B401C2063E08E401EE086EDE711
:1044C000FFF71EFB0199401AA84203D30020C04306
:1044D000854201D1002DE1D10320060019E0019AA7
:1044E0002900200000F072F8002801D0202060652B
:1044F000A068002808D1002000902068C0680090C3
:104500002068806800900098606D002801D001202C
:1045100006000120512160540020502160543000D9
:10452000C0B205B0F0BDF4B504000F001D00069E3A
:10453000206880683840B84201D1012000E00020A6
:104540006946097888423FD00020C0438542EFD0B9
:10455000FFF7D6FA801BA84201D2002DE8D12068CF
:104560004068E021884321684860606882214900F2
:1045700088420FD1A06880210902884204D0A06837
:104580008021C900884205D1206800684021884305
:1045900021680860A06A8021890188420CD12068C6
:1045A000006821490140206801602068006880217E
:1045B00089010143206801600120512160540020DD
:1045C00050216054032000E00020F2BD70B582B09D
:1045D00004000D00160060688221490088420ED157
:1045E00000962B00002280212000FFF79CFF00286E
:1045F00018D0606D202101436165032013E0512034
:10460000205C05280ED100962B00002201212000FD
:10461000FFF789FF002805D0606D20210143616507
:10462000032000E0002076BDFFDFFFFF10B592B051
:104630000FA892491CC91CC00C390C380CA8CB49D6
:104640001CC91CC00C390C3809A8C9491CC91CC09C
:104650000C390C38FFF716FA00F0A2F800F010F948
:1046600000F0DCF800F00CF900F0D8F8FFF714FDCA
:10467000C048FFF71FFEBF48029000200190BE48CF
:1046800003C8009103000FAA00210020FFF773FD6B
:10469000B84802901F200190B74803C8009103005A
:1046A0000CAA1C210020FFF766FDB2480290F820FA
:1046B00000020190B04803C80091030009AA382104
:1046C0000020FFF758FDAD480268ADA107A800F033
:1046D0006FF9AC480268AAA105A800F069F9AA48D8
:1046E0000268A7A103A800F063F9A4480068401C71
:1046F000A2490860A3480068801CA2490860A2483B
:104700000068C01CA04908609C4800689F49884216
:1047100002DB0020994908609A4800689B4988425A
:1047200002DB002097490860974800689749884253
:1047300002DB0020944908608E480290002001901E
:104740008D4803C80091030007AA00215020FFF7FD
:1047500012FD884802901F200190874803C80091ED
:10476000030005AA1C215020FFF705FD8148029097
:10477000F82000020190804803C80091030003AABA
:1047800038215020FFF7F7FC7C480068962800DAB3
:1047900071E77848FFF78EFD0020784908606AE7E6
:1047A00000B593B005A83821FFF7BCFA684614217C
:1047B000FFF7B8FA7648006876490140802000018A
:1047C00008437349086002200590012008901020DA
:1047D000099002200F90002010908020000311907B
:1047E00080200004129005A8FEF7E8FC002801D004
:1047F00000F0DCF80F2000900320019000200290D0
:10480000002003900020049001216846FEF7E2FF9B
:10481000002801D000F0CAF813B000BD80B55E4892
:104820005E490860822040005C49486080200002A8
:104830005A49886000205949C860002057490861DA
:10484000002056494861802080005449886100203A
:104850005249C86100205149086200204F4948620E
:1048600000204E49886207204C49C8624B48FFF738
:104870002DFD002801D000F099F801BDB84C0008CA
:10488000F0B587B001A81421FFF74CFA444800683E
:104890000421014342480160414800680421084066
:1048A0000090009F3E480068802101433C48016021
:1048B0003B480068802108400090009E384800680E
:1048C0000121014336480160354800680100C907ED
:1048D000C90F0091009D3248006802210143304811
:1048E00001602F480068022108400090009C0022CF
:1048F000E1214901A020C005FFF703FB80208001D2
:104900000190284802900020039001A92648FFF753
:104910000BFA0C200190022002900020039003204B
:1049200004900420059001A9A020C005FFF7FCF920
:10493000202001900120029000200390002004908C
:1049400001A9A020C005FFF7EFF9E0204001019088
:1049500001200290022003900120049001A9A020D0
:10496000C005FFF7E1F907B0F0BD0000C44C000836
:10497000D04C0008FFFF0000FC0000207001002068
:10498000256400007401002078010020E703000086
:1049900000700040FFE7FFFF0030014010010020E1
:1049A0002C10024000002110000800507047FEE764
:1049B0000CB41CB5040004A80190009401AB0A00DB
:1049C0006946084878441C30FCF720FD0021009A15
:1049D0001170002801D40098001B02B0019910BC8E
:1049E00003B00847ABE1FFFF816807E00268116888
:1049F00051185368CB18C36008320260C2689142F4
:104A0000F4D04A1C826008787047F0B587B0010086
:104A10000831029102685208D200891803910025DA
:104A20000495059501684908C90044180834406890
:104A30006946C307DB0F4B704008C0002018019087
:104A4000002735E002A8FFF7CFFF46B20AE0029840
:104A5000016840180490029949684018059002982E
:104A600008300290049805998842F0D0411C0491C6
:104A7000007869460870BD4210D10198844201D186
:104A800000F01EF8256868464078002801D04846A6
:104A90002D1860682F180834BD42EED068460078A3
:104AA00028706D1C002E08D5761CE4D1BD42C9D1FA
:104AB00001988442C6D107B0F0BD761ED2D5F5E785
:104AC00080B5012000F002F801BDFEE780B5C046C8
:104AD000C046024A11001820ABBEFBE726000200C8
:104AE00016480068802149000143144801601448B9
:104AF00000681449014012480160104800681249DA
:104B000001400E48016011480068012188430F49A7
:104B100008600A4800680E490140084801600848DA
:104B200000680C4901400648016000200A490860FD
:104B3000802000050949086070470000001002400D
:104B40000C1002400C40FF88F6FFF6FE08100240F1
:104B5000FFFFFBFFFFFF02FF1010024008ED00E027
:104B60000F0180961180FFB103012C2DB203012C9F
:104B70002DB306012C2D012C2DB40107C003A20278
:104B800084C101C5C2020A00C3028A2AC4028AEE95
:104B9000C5010E20003601603A01050004E0100254
:104BA0001C07123732292D29252B3900010310E16A
:104BB00010031D07062E2C292D2E2E373F00000234
:104BC0001013800A2980640000000000000000002B
:104BD000686A6C747A4C000000000000000000005D
:104BE0006E616E004E414E00696E6600494E460091
:104BF00010B5074979441831064C7C44163404E05A
:104C0000081D0A68891888470100A142F8D110BD23
:104C10000800000030000000DFDDFFFF740000002E
:104C20001001002000000000E3FDFFFF0200000073
:104C300002000000EC0000001C000000000000204A
:104C40000D01000000F00BF8002801D0FFF7D0FFA5
:104C50000020C046C046FFF7E9FC00F002F8012042
:104C6000704780B500F002F801BDFEE70746384600
:104C7000FFF72CFFFBE7704700B5FEE77047704772
:104C800080B5FEF735FF01BD022A040000007F2B2E
:104C9000040000007F000000000000000000000091
:104CA000010203040607080901488047014800473C
:104CB000E14A0008E94C00085431203D2000000082
:104CC000000000005432203D2000000000000000E1
:104CD0005433203D200000000000000003040608BB
:104CE0000C10182030000000C046C046C046C04628
:104CF000FFF7A8FFFEE7FEE7FEE7FEE7FEE7FEE7B9
:104D0000FEE7FEE7FEE7FEE7FEE7FEE7FEE7FEE77B
:104D1000FEE7FEE7FEE7FEE7FEE7FEE7FEE7FEE76B
:104D2000E400F8FFDC00FAFF8100D10008101A004F
:0C4D300000C000000804FB00022000018D
:0400000508004CE9BA
:00000001FF
